{
  "abi": [
    {
      "inputs": [
        {
          "internalType": "contract IERC20",
          "name": "purchaseToken",
          "type": "address"
        }
      ],
      "stateMutability": "nonpayable",
      "type": "constructor"
    },
    {
      "anonymous": false,
      "inputs": [
        {
          "indexed": true,
          "internalType": "address",
          "name": "creator",
          "type": "address"
        },
        {
          "indexed": true,
          "internalType": "address",
          "name": "ticketCollection",
          "type": "address"
        },
        {
          "indexed": false,
          "internalType": "string",
          "name": "eventName",
          "type": "string"
        },
        {
          "indexed": false,
          "internalType": "uint256",
          "name": "price",
          "type": "uint256"
        },
        {
          "indexed": false,
          "internalType": "uint256",
          "name": "maxNumberOfTickets",
          "type": "uint256"
        }
      ],
      "name": "EventCreated",
      "type": "event"
    },
    {
      "anonymous": false,
      "inputs": [
        {
          "indexed": true,
          "internalType": "address",
          "name": "holder",
          "type": "address"
        },
        {
          "indexed": true,
          "internalType": "address",
          "name": "ticketCollection",
          "type": "address"
        },
        {
          "indexed": false,
          "internalType": "uint256",
          "name": "ticketId",
          "type": "uint256"
        },
        {
          "indexed": false,
          "internalType": "string",
          "name": "holderName",
          "type": "string"
        }
      ],
      "name": "Purchase",
      "type": "event"
    },
    {
      "inputs": [
        {
          "internalType": "string",
          "name": "eventName",
          "type": "string"
        },
        {
          "internalType": "uint256",
          "name": "price",
          "type": "uint256"
        },
        {
          "internalType": "uint256",
          "name": "maxNumberOfTickets",
          "type": "uint256"
        }
      ],
      "name": "createNewEvent",
      "outputs": [
        {
          "internalType": "contract ITicketNFT",
          "name": "",
          "type": "address"
        }
      ],
      "stateMutability": "nonpayable",
      "type": "function"
    },
    {
      "inputs": [
        {
          "internalType": "address",
          "name": "",
          "type": "address"
        }
      ],
      "name": "deployedEvents",
      "outputs": [
        {
          "internalType": "string",
          "name": "eventName",
          "type": "string"
        },
        {
          "internalType": "uint256",
          "name": "price",
          "type": "uint256"
        },
        {
          "internalType": "uint256",
          "name": "maxNumberOfTickets",
          "type": "uint256"
        },
        {
          "internalType": "uint256",
          "name": "ticketsSold",
          "type": "uint256"
        },
        {
          "internalType": "address",
          "name": "creator",
          "type": "address"
        }
      ],
      "stateMutability": "view",
      "type": "function"
    },
    {
      "inputs": [
        {
          "internalType": "address",
          "name": "ticketCollection",
          "type": "address"
        }
      ],
      "name": "getPrice",
      "outputs": [
        {
          "internalType": "uint256",
          "name": "",
          "type": "uint256"
        }
      ],
      "stateMutability": "view",
      "type": "function"
    },
    {
      "inputs": [
        {
          "internalType": "address",
          "name": "ticketCollection",
          "type": "address"
        },
        {
          "internalType": "string",
          "name": "holderName",
          "type": "string"
        }
      ],
      "name": "purchase",
      "outputs": [
        {
          "internalType": "uint256",
          "name": "",
          "type": "uint256"
        }
      ],
      "stateMutability": "nonpayable",
      "type": "function"
    }
  ],
  "bytecode": {
    "object": "0x608060405234801561001057600080fd5b506040516120ea3803806120ea83398101604081905261002f91610054565b600080546001600160a01b0319166001600160a01b0392909216919091179055610084565b60006020828403121561006657600080fd5b81516001600160a01b038116811461007d57600080fd5b9392505050565b612057806100936000396000f3fe60806040523480156200001157600080fd5b5060043610620000525760003560e01c806322ce908714620000575780633a1b1d57146200008a57806341976e0914620000b0578063a5cd54d414620000e0575b600080fd5b6200006e6200006836600462000642565b62000110565b60405162000081959493929190620006b7565b60405180910390f35b620000a16200009b366004620007a4565b620001d8565b60405190815260200162000081565b620000a1620000c136600462000642565b6001600160a01b03166000908152600160208190526040909120015490565b620000f7620000f1366004620007f8565b6200042d565b6040516001600160a01b03909116815260200162000081565b6001602052600090815260409020805481906200012d906200084a565b80601f01602080910402602001604051908101604052809291908181526020018280546200015b906200084a565b8015620001ac5780601f106200018057610100808354040283529160200191620001ac565b820191906000526020600020905b8154815290600101906020018083116200018e57829003601f168201915b50505050600183015460028401546003850154600490950154939491939092506001600160a01b031685565b6001600160a01b038216600090815260016020526040812060028101546003820154106200024d5760405162461bcd60e51b815260206004820152601960248201527f4e6f206d6f7265207469636b65747320617661696c61626c650000000000000060448201526064015b60405180910390fd5b6001600160a01b0384811660009081526001602052604090206004015416620002b95760405162461bcd60e51b815260206004820152601760248201527f496e76616c69642063726561746f722061646472657373000000000000000000604482015260640162000244565b60005460048281015460018401546040516323b872dd60e01b815233938101939093526001600160a01b0391821660248401526044830152909116906323b872dd906064016020604051808303816000875af11580156200031e573d6000803e3d6000fd5b505050506040513d601f19601f8201168201806040525081019062000344919062000887565b5060405163d0def52160e01b81526000906001600160a01b0386169063d0def52190620003789033908890600401620008ab565b6020604051808303816000875af115801562000398573d6000803e3d6000fd5b505050506040513d601f19601f82011682018060405250810190620003be9190620008d9565b90506001826003016000828254620003d79190620008f3565b90915550506040516001600160a01b0386169033907f919be812a285f2dcdadb642b6be908c8924fb8e7c1bb20ceb040ed312b03c813906200041d90859089906200091a565b60405180910390a3949350505050565b6000808285853060008054906101000a90046001600160a01b031633604051620004579062000571565b620004689695949392919062000935565b604051809103906000f08015801562000485573d6000803e3d6000fd5b506040805160a08101825287815260208082018890528183018790526000606083018190523360808401526001600160a01b0385168152600182529290922081518051949550859492939192620004e092849201906200057f565b5060208201516001820155604080830151600283015560608301516003830155608090920151600490910180546001600160a01b0319166001600160a01b0392831617905590519082169033907f2a02a92e56497cfd27dfc15a4d0093031ad5012ce1fd1ae5107bfbc594e4cff39062000560908a908a908a9062000980565b60405180910390a395945050505050565b61167a80620009a883390190565b8280546200058d906200084a565b90600052602060002090601f016020900481019282620005b15760008555620005fc565b82601f10620005cc57805160ff1916838001178555620005fc565b82800160010185558215620005fc579182015b82811115620005fc578251825591602001919060010190620005df565b506200060a9291506200060e565b5090565b5b808211156200060a57600081556001016200060f565b80356001600160a01b03811681146200063d57600080fd5b919050565b6000602082840312156200065557600080fd5b620006608262000625565b9392505050565b6000815180845260005b818110156200068f5760208185018101518683018201520162000671565b81811115620006a2576000602083870101525b50601f01601f19169290920160200192915050565b60a081526000620006cc60a083018862000667565b602083019690965250604081019390935260608301919091526001600160a01b0316608090910152919050565b634e487b7160e01b600052604160045260246000fd5b600082601f8301126200072157600080fd5b813567ffffffffffffffff808211156200073f576200073f620006f9565b604051601f8301601f19908116603f011681019082821181831017156200076a576200076a620006f9565b816040528381528660208588010111156200078457600080fd5b836020870160208301376000602085830101528094505050505092915050565b60008060408385031215620007b857600080fd5b620007c38362000625565b9150602083013567ffffffffffffffff811115620007e057600080fd5b620007ee858286016200070f565b9150509250929050565b6000806000606084860312156200080e57600080fd5b833567ffffffffffffffff8111156200082657600080fd5b62000834868287016200070f565b9660208601359650604090950135949350505050565b600181811c908216806200085f57607f821691505b602082108114156200088157634e487b7160e01b600052602260045260246000fd5b50919050565b6000602082840312156200089a57600080fd5b815180151581146200066057600080fd5b6001600160a01b0383168152604060208201819052600090620008d19083018462000667565b949350505050565b600060208284031215620008ec57600080fd5b5051919050565b600082198211156200091557634e487b7160e01b600052601160045260246000fd5b500190565b828152604060208201526000620008d1604083018462000667565b86815260c0602082015260006200095060c083018862000667565b6040830196909652506001600160a01b039384166060820152918316608083015290911660a09091015292915050565b60608152600062000995606083018662000667565b6020830194909452506040015291905056fe60806040523480156200001157600080fd5b506040516200167a3803806200167a833981016040819052620000349162000182565b600180556002869055845162000052906005906020880190620000a9565b5060069390935560038054336001600160a01b0319918216179091556004805482166001600160a01b0394851617905560078054821692841692909217909155600880549091169190921617905550620002e99050565b828054620000b790620002ac565b90600052602060002090601f016020900481019282620000db576000855562000126565b82601f10620000f657805160ff191683800117855562000126565b8280016001018555821562000126579182015b828111156200012657825182559160200191906001019062000109565b506200013492915062000138565b5090565b5b8082111562000134576000815560010162000139565b634e487b7160e01b600052604160045260246000fd5b80516001600160a01b03811681146200017d57600080fd5b919050565b60008060008060008060c087890312156200019c57600080fd5b8651602080890151919750906001600160401b0380821115620001be57600080fd5b818a0191508a601f830112620001d357600080fd5b815181811115620001e857620001e86200014f565b604051601f8201601f19908116603f011681019083821181831017156200021357620002136200014f565b816040528281528d868487010111156200022c57600080fd5b600093505b8284101562000250578484018601518185018701529285019262000231565b82841115620002625760008684830101525b809a5050505050505060408701519350620002806060880162000165565b9250620002906080880162000165565b9150620002a060a0880162000165565b90509295509295509295565b600181811c90821680620002c157607f821691505b60208210811415620002e357634e487b7160e01b600052602260045260246000fd5b50919050565b61138180620002f96000396000f3fe608060405234801561001057600080fd5b506004361061010b5760003560e01c80637b615c4b116100a2578063a035b1fe11610071578063a035b1fe14610222578063d0def5211461022b578063d35107551461023e578063dbacc23714610247578063fdf8a44e1461025a57600080fd5b80637b615c4b146101e15780638043c9c0146101f45780638543016c146101fc5780639d76ea581461020f57600080fd5b806323b872dd116100de57806323b872dd14610185578063600580d51461019857806370a08231146101b857806372a11ebf146101d957600080fd5b806302d05d3f14610110578063081812fc1461013a578063095ea7b31461014d5780631ac0d8ac14610162575b600080fd5b6008546001600160a01b03165b6040516001600160a01b0390911681526020015b60405180910390f35b61011d610148366004611035565b610262565b61016061015b36600461106a565b6102ae565b005b610175610170366004611035565b6103c2565b6040519015158152602001610131565b610160610193366004611094565b610542565b6101ab6101a6366004611035565b6107f8565b60405161013191906110d0565b6101cb6101c6366004611125565b61089d565b604051908152602001610131565b6000546101cb565b6101606101ef366004611140565b610924565b6101ab6109e8565b61016061020a366004611035565b610a7a565b60075461011d906001600160a01b031681565b6101cb60065481565b6101cb6102393660046111d2565b610bdd565b6101cb60005481565b61011d610255366004611035565b610ecc565b6002546101cb565b600061026d82610f0f565b6102925760405162461bcd60e51b815260040161028990611294565b60405180910390fd5b506000908152600b60205260409020546001600160a01b031690565b6102b781610f0f565b6103035760405162461bcd60e51b815260206004820181905260248201527f5469636b65744e46543a207469636b657420646f6573206e6f742065786973746044820152606401610289565b6000818152600a60205260409020546001600160a01b031633146103695760405162461bcd60e51b815260206004820152601e60248201527f43616c6c6572206973206e6f7420746865207469636b6574206f776e657200006044820152606401610289565b6000818152600b602052604080822080546001600160a01b0319166001600160a01b0386169081179091559051839233917f8c5be1e5ebec7d5bd14f71427d1e84f3dd0314c0f7b2291e5b200ac8c7c3b9259190a45050565b600081815260096020526040808220815160a08101909252805483929190829082906103ed906112cb565b80601f0160208091040260200160405190810160405280929190818152602001828054610419906112cb565b80156104665780601f1061043b57610100808354040283529160200191610466565b820191906000526020600020905b81548152906001019060200180831161044957829003601f168201915b5050505050815260200160018201548152602001600282018054610489906112cb565b80601f01602080910402602001604051908101604052809291908181526020018280546104b5906112cb565b80156105025780601f106104d757610100808354040283529160200191610502565b820191906000526020600020905b8154815290600101906020018083116104e557829003601f168201915b50505091835250506003820154602082015260049091015460ff16151560409091015260808101519091508061053b5750806060015142115b9392505050565b6000818152600a60205260409020546001600160a01b038481169116146105b75760405162461bcd60e51b8152602060048201526024808201527f5469636b657420646f65736e27742065786973742061742074686973206164646044820152637265737360e01b6064820152608401610289565b6001600160a01b03821661060d5760405162461bcd60e51b815260206004820181905260248201527f41646472657373203020697320616e20696e76616c69642072656369657665726044820152606401610289565b6001600160a01b0383166106635760405162461bcd60e51b815260206004820152601d60248201527f41646472657373203020697320616e20696e76616c6964206f776e65720000006044820152606401610289565b6000818152600a60205260409020546001600160a01b031633148061069e57506000818152600b60205260409020546001600160a01b031633145b6106ea5760405162461bcd60e51b815260206004820152601d60248201527f43616c6c6572206e6f74206f776e6572206e6f7220617070726f7665640000006044820152606401610289565b6000818152600a6020908152604080832080546001600160a01b0319166001600160a01b038781169190911790915586168352600c909152812080546001929061073590849061131c565b90915550506001600160a01b0382166000908152600c60205260408120805460019290610763908490611333565b90915550506000818152600b602052604080822080546001600160a01b03191690555182916001600160a01b0385811692908716917fddf252ad1be2c89b69c2b068fc378daa952ba7f163c4a11628f55a4df523b3ef91a460405181906000906001600160a01b038616907f8c5be1e5ebec7d5bd14f71427d1e84f3dd0314c0f7b2291e5b200ac8c7c3b925908390a4505050565b6000818152600960205260409020600201805460609190610818906112cb565b80601f0160208091040260200160405190810160405280929190818152602001828054610844906112cb565b80156108915780601f1061086657610100808354040283529160200191610891565b820191906000526020600020905b81548152906001019060200180831161087457829003601f168201915b50505050509050919050565b60006001600160a01b0382166109085760405162461bcd60e51b815260206004820152602a60248201527f4552433732313a2062616c616e636520717565727920666f7220746865207a65604482015269726f206164647265737360b01b6064820152608401610289565b506001600160a01b03166000908152600c602052604090205490565b6000838152600a60205260409020546001600160a01b031633146109a15760405162461bcd60e51b815260206004820152602e60248201527f4552432d3732313a204f6e6c79207469636b657420686f6c6465722063616e2060448201526d31b0b63610333ab731ba34b7b71760911b6064820152608401610289565b6109aa83610f0f565b6109c65760405162461bcd60e51b815260040161028990611294565b60008381526009602052604090206109e2906002018383610f28565b50505050565b6060600580546109f7906112cb565b80601f0160208091040260200160405190810160405280929190818152602001828054610a23906112cb565b8015610a705780601f10610a4557610100808354040283529160200191610a70565b820191906000526020600020905b815481529060010190602001808311610a5357829003601f168201915b5050505050905090565b6003546001600160a01b03163314610ade5760405162461bcd60e51b815260206004820152602160248201527f4f6e6c792061646d696e2063616e20736574207469636b6574206173207573656044820152601960fa1b6064820152608401610289565b610ae781610f0f565b610b035760405162461bcd60e51b815260040161028990611294565b600081815260096020526040902060030154421115610b645760405162461bcd60e51b815260206004820152601760248201527f4552432d3732313a205469636b657420657870697265640000000000000000006044820152606401610289565b60008181526009602052604090206004015460ff1615610bbf5760405162461bcd60e51b8152602060048201526016602482015275151a58dad95d081a5cc8185b1c9958591e481d5cd95960521b6044820152606401610289565b6000908152600960205260409020600401805460ff19166001179055565b6003546000906001600160a01b03163314610c3a5760405162461bcd60e51b815260206004820152601b60248201527f4f6e6c792061646d696e2063616e206d696e74207469636b65747300000000006044820152606401610289565b6004546001600160a01b03163314610ca35760405162461bcd60e51b815260206004820152602660248201527f4552432d3732313a204d696e746572206d757374206265207072696d617279206044820152651b585c9ad95d60d21b6064820152608401610289565b6002546001541115610cf75760405162461bcd60e51b815260206004820152601e60248201527f4552432d3732313a204d6178696d756d20546f6b656e73206d696e74656400006044820152606401610289565b600060015490506040518060a0016040528060058054610d16906112cb565b80601f0160208091040260200160405190810160405280929190818152602001828054610d42906112cb565b8015610d8f5780601f10610d6457610100808354040283529160200191610d8f565b820191906000526020600020905b815481529060010190602001808311610d7257829003601f168201915b5050505050815260200182815260200184815260200142620d2f00610db49190611333565b8152600060209182018190528381526009825260409020825180519192610de092849290910190610fac565b50602082810151600183015560408301518051610e039260028501920190610fac565b50606082015160038201556080909101516004909101805460ff19169115159190911790556000818152600a6020908152604080832080546001600160a01b0319166001600160a01b0389169081179091558352600c9091528120805460019290610e6f908490611333565b925050819055506001806000828254610e889190611333565b909155505060405181906001600160a01b038616906000907fddf252ad1be2c89b69c2b068fc378daa952ba7f163c4a11628f55a4df523b3ef908290a49392505050565b6000610ed782610f0f565b610ef35760405162461bcd60e51b815260040161028990611294565b506000908152600a60205260409020546001600160a01b031690565b60008082118015610f2257506002548211155b92915050565b828054610f34906112cb565b90600052602060002090601f016020900481019282610f565760008555610f9c565b82601f10610f6f5782800160ff19823516178555610f9c565b82800160010185558215610f9c579182015b82811115610f9c578235825591602001919060010190610f81565b50610fa8929150611020565b5090565b828054610fb8906112cb565b90600052602060002090601f016020900481019282610fda5760008555610f9c565b82601f10610ff357805160ff1916838001178555610f9c565b82800160010185558215610f9c579182015b82811115610f9c578251825591602001919060010190611005565b5b80821115610fa85760008155600101611021565b60006020828403121561104757600080fd5b5035919050565b80356001600160a01b038116811461106557600080fd5b919050565b6000806040838503121561107d57600080fd5b6110868361104e565b946020939093013593505050565b6000806000606084860312156110a957600080fd5b6110b28461104e565b92506110c06020850161104e565b9150604084013590509250925092565b600060208083528351808285015260005b818110156110fd578581018301518582016040015282016110e1565b8181111561110f576000604083870101525b50601f01601f1916929092016040019392505050565b60006020828403121561113757600080fd5b61053b8261104e565b60008060006040848603121561115557600080fd5b83359250602084013567ffffffffffffffff8082111561117457600080fd5b818601915086601f83011261118857600080fd5b81358181111561119757600080fd5b8760208285010111156111a957600080fd5b6020830194508093505050509250925092565b634e487b7160e01b600052604160045260246000fd5b600080604083850312156111e557600080fd5b6111ee8361104e565b9150602083013567ffffffffffffffff8082111561120b57600080fd5b818501915085601f83011261121f57600080fd5b813581811115611231576112316111bc565b604051601f8201601f19908116603f01168101908382118183101715611259576112596111bc565b8160405282815288602084870101111561127257600080fd5b8260208601602083013760006020848301015280955050505050509250929050565b6020808252601e908201527f4552432d3732313a205469636b657420646f65736e27742065786973742e0000604082015260600190565b600181811c908216806112df57607f821691505b6020821081141561130057634e487b7160e01b600052602260045260246000fd5b50919050565b634e487b7160e01b600052601160045260246000fd5b60008282101561132e5761132e611306565b500390565b6000821982111561134657611346611306565b50019056fea2646970667358221220f1966ffc4598b5fb776bfb320ce750b8961d2bda69a88d033d1648e2e4067b0264736f6c634300080a0033a2646970667358221220c02507e61c403de7b4ccfdc1a9e372538afe4a99090b67027cf8de3690c7ff0164736f6c634300080a0033",
    "linkReferences": {}
  },
  "methodIdentifiers": {
    "createNewEvent(string,uint256,uint256)": "a5cd54d4",
    "deployedEvents(address)": "22ce9087",
    "getPrice(address)": "41976e09",
    "purchase(address,string)": "3a1b1d57"
  },
  "id": 15
}