{
  "abi": [
    {
      "inputs": [
        {
          "internalType": "contract IERC20",
          "name": "purchaseToken",
          "type": "address"
        }
      ],
      "stateMutability": "nonpayable",
      "type": "constructor"
    },
    {
      "anonymous": false,
      "inputs": [
        {
          "indexed": true,
          "internalType": "address",
          "name": "bidder",
          "type": "address"
        },
        {
          "indexed": true,
          "internalType": "address",
          "name": "ticketCollection",
          "type": "address"
        },
        {
          "indexed": true,
          "internalType": "uint256",
          "name": "ticketID",
          "type": "uint256"
        },
        {
          "indexed": false,
          "internalType": "uint256",
          "name": "bidAmount",
          "type": "uint256"
        }
      ],
      "name": "BidAccepted",
      "type": "event"
    },
    {
      "anonymous": false,
      "inputs": [
        {
          "indexed": true,
          "internalType": "address",
          "name": "bidder",
          "type": "address"
        },
        {
          "indexed": true,
          "internalType": "address",
          "name": "ticketCollection",
          "type": "address"
        },
        {
          "indexed": true,
          "internalType": "uint256",
          "name": "ticketID",
          "type": "uint256"
        },
        {
          "indexed": false,
          "internalType": "uint256",
          "name": "bidAmount",
          "type": "uint256"
        }
      ],
      "name": "BidSubmitted",
      "type": "event"
    },
    {
      "anonymous": false,
      "inputs": [
        {
          "indexed": true,
          "internalType": "address",
          "name": "ticketCollection",
          "type": "address"
        },
        {
          "indexed": true,
          "internalType": "uint256",
          "name": "ticketID",
          "type": "uint256"
        }
      ],
      "name": "Delisting",
      "type": "event"
    },
    {
      "anonymous": false,
      "inputs": [
        {
          "indexed": true,
          "internalType": "address",
          "name": "holder",
          "type": "address"
        },
        {
          "indexed": true,
          "internalType": "uint256",
          "name": "ticketID",
          "type": "uint256"
        },
        {
          "indexed": true,
          "internalType": "uint256",
          "name": "price",
          "type": "uint256"
        }
      ],
      "name": "Listing",
      "type": "event"
    },
    {
      "inputs": [
        {
          "internalType": "address",
          "name": "ticketCollection",
          "type": "address"
        },
        {
          "internalType": "uint256",
          "name": "ticketID",
          "type": "uint256"
        }
      ],
      "name": "acceptBid",
      "outputs": [],
      "stateMutability": "nonpayable",
      "type": "function"
    },
    {
      "inputs": [
        {
          "internalType": "address",
          "name": "ticketCollection",
          "type": "address"
        },
        {
          "internalType": "uint256",
          "name": "ticketID",
          "type": "uint256"
        }
      ],
      "name": "delistTicket",
      "outputs": [],
      "stateMutability": "nonpayable",
      "type": "function"
    },
    {
      "inputs": [
        {
          "internalType": "address",
          "name": "ticketCollection",
          "type": "address"
        },
        {
          "internalType": "uint256",
          "name": "ticketID",
          "type": "uint256"
        }
      ],
      "name": "getHighestBid",
      "outputs": [
        {
          "internalType": "uint256",
          "name": "",
          "type": "uint256"
        }
      ],
      "stateMutability": "view",
      "type": "function"
    },
    {
      "inputs": [
        {
          "internalType": "address",
          "name": "ticketCollection",
          "type": "address"
        },
        {
          "internalType": "uint256",
          "name": "ticketID",
          "type": "uint256"
        }
      ],
      "name": "getHighestBidder",
      "outputs": [
        {
          "internalType": "address",
          "name": "",
          "type": "address"
        }
      ],
      "stateMutability": "view",
      "type": "function"
    },
    {
      "inputs": [
        {
          "internalType": "address",
          "name": "",
          "type": "address"
        },
        {
          "internalType": "uint256",
          "name": "",
          "type": "uint256"
        }
      ],
      "name": "highestBids",
      "outputs": [
        {
          "internalType": "address",
          "name": "bidderAddress",
          "type": "address"
        },
        {
          "internalType": "uint256",
          "name": "bidAmount",
          "type": "uint256"
        },
        {
          "internalType": "uint256",
          "name": "ticketID",
          "type": "uint256"
        },
        {
          "internalType": "string",
          "name": "newName",
          "type": "string"
        }
      ],
      "stateMutability": "view",
      "type": "function"
    },
    {
      "inputs": [
        {
          "internalType": "address",
          "name": "ticketCollection",
          "type": "address"
        },
        {
          "internalType": "uint256",
          "name": "ticketID",
          "type": "uint256"
        },
        {
          "internalType": "uint256",
          "name": "price",
          "type": "uint256"
        }
      ],
      "name": "listTicket",
      "outputs": [],
      "stateMutability": "nonpayable",
      "type": "function"
    },
    {
      "inputs": [
        {
          "internalType": "address",
          "name": "",
          "type": "address"
        },
        {
          "internalType": "uint256",
          "name": "",
          "type": "uint256"
        }
      ],
      "name": "listings",
      "outputs": [
        {
          "internalType": "address",
          "name": "seller",
          "type": "address"
        },
        {
          "internalType": "uint256",
          "name": "price",
          "type": "uint256"
        },
        {
          "internalType": "bool",
          "name": "isActive",
          "type": "bool"
        }
      ],
      "stateMutability": "view",
      "type": "function"
    },
    {
      "inputs": [
        {
          "internalType": "address",
          "name": "ticketCollection",
          "type": "address"
        },
        {
          "internalType": "uint256",
          "name": "ticketID",
          "type": "uint256"
        },
        {
          "internalType": "uint256",
          "name": "bidAmount",
          "type": "uint256"
        },
        {
          "internalType": "string",
          "name": "name",
          "type": "string"
        }
      ],
      "name": "submitBid",
      "outputs": [],
      "stateMutability": "nonpayable",
      "type": "function"
    }
  ],
  "bytecode": {
    "object": "0x608060405234801561001057600080fd5b5060405161177738038061177783398101604081905261002f91610054565b600280546001600160a01b0319166001600160a01b0392909216919091179055610084565b60006020828403121561006657600080fd5b81516001600160a01b038116811461007d57600080fd5b9392505050565b6116e4806100936000396000f3fe608060405234801561001057600080fd5b50600436106100875760003560e01c80638226508d1161005b5780638226508d14610147578063955a5a761461018e578063a670a9b4146101a1578063f489b89a146101ef57600080fd5b806207df301461008c5780631d66b15c146100fc5780636b753f3614610111578063793bba6c14610134575b600080fd5b6100d061009a3660046113ff565b60006020818152928152604080822090935290815220805460018201546002909201546001600160a01b03909116919060ff1683565b604080516001600160a01b03909416845260208401929092521515908201526060015b60405180910390f35b61010f61010a36600461142b565b610202565b005b61012461011f3660046113ff565b6105f9565b6040516100f394939291906114ad565b61010f6101423660046114e4565b6106bf565b6101806101553660046113ff565b6001600160a01b03919091166000908152600160208181526040808420948452939052919020015490565b6040519081526020016100f3565b61010f61019c3660046113ff565b610b65565b6101d76101af3660046113ff565b6001600160a01b03918216600090815260016020908152604080832093835292905220541690565b6040516001600160a01b0390911681526020016100f3565b61010f6101fd3660046113ff565b6110a4565b60405163dbacc23760e01b815260048101839052839033906001600160a01b0383169063dbacc23790602401602060405180830381865afa15801561024b573d6000803e3d6000fd5b505050506040513d601f19601f8201168201806040525081019061026f919061157a565b6001600160a01b0316146102c15760405162461bcd60e51b81526020600482015260146024820152732737ba103a3432903a34b1b5b2ba1037bbb732b960611b60448201526064015b60405180910390fd5b6040516306b0362b60e21b8152600481018490526001600160a01b03821690631ac0d8ac90602401602060405180830381865afa158015610306573d6000803e3d6000fd5b505050506040513d601f19601f8201168201806040525081019061032a919061159e565b156103705760405162461bcd60e51b8152602060048201526016602482015275151a58dad95d08195e1c1a5c9959081bdc881d5cd95960521b60448201526064016102b8565b6001600160a01b03841660009081526020818152604080832086845290915290206002015460ff16156103dd5760405162461bcd60e51b8152602060048201526015602482015274151a58dad95d08185b1c9958591e481b1a5cdd1959605a1b60448201526064016102b8565b6040516323b872dd60e01b81526001600160a01b038216906323b872dd9061040d903390309088906004016115c0565b600060405180830381600087803b15801561042757600080fd5b505af115801561043b573d6000803e3d6000fd5b505050506040518060600160405280336001600160a01b0316815260200183815260200160011515815250600080866001600160a01b03166001600160a01b03168152602001908152602001600020600085815260200190815260200160002060008201518160000160006101000a8154816001600160a01b0302191690836001600160a01b031602179055506020820151816001015560408201518160020160006101000a81548160ff0219169083151502179055509050506040518060800160405280336001600160a01b031681526020018381526020018481526020016040518060200160405280600081525081525060016000866001600160a01b03166001600160a01b03168152602001908152602001600020600085815260200190815260200160002060008201518160000160006101000a8154816001600160a01b0302191690836001600160a01b03160217905550602082015181600101556040820151816002015560608201518160030190805190602001906105c1929190611314565b5050604051839150849033907f6935191bc626032d8c74ced321b2d6a62df2578bf60599625cb4f59d51e3849f90600090a450505050565b6001602081815260009384526040808520909152918352912080549181015460028201546003830180546001600160a01b03909516949293919261063c906115e4565b80601f0160208091040260200160405190810160405280929190818152602001828054610668906115e4565b80156106b55780601f1061068a576101008083540402835291602001916106b5565b820191906000526020600020905b81548152906001019060200180831161069857829003601f168201915b5050505050905084565b6001600160a01b03851660009081526020818152604080832087845290915290206002810154869060ff1661072c5760405162461bcd60e51b81526020600482015260136024820152725469636b6574206e6f7420666f722073616c6560681b60448201526064016102b8565b6040516306b0362b60e21b8152600481018790526001600160a01b03821690631ac0d8ac90602401602060405180830381865afa158015610771573d6000803e3d6000fd5b505050506040513d601f19601f82011682018060405250810190610795919061159e565b156107f05760405162461bcd60e51b815260206004820152602560248201527f43616e6e6f7420626964206f6e2075736564206f722065787069726564207469604482015264636b65747360d81b60648201526084016102b8565b60405163dbacc23760e01b81526004810187905233906001600160a01b0383169063dbacc23790602401602060405180830381865afa158015610837573d6000803e3d6000fd5b505050506040513d601f19601f8201168201806040525081019061085b919061157a565b6001600160a01b031614156108b25760405162461bcd60e51b815260206004820152601860248201527f43616e6e6f7420626964206f6e206f776e207469636b6574000000000000000060448201526064016102b8565b6001600160a01b03871660009081526001602081815260408084208a8552909152909120015485116109145760405162461bcd60e51b815260206004820152600b60248201526a42696420746f6f206c6f7760a81b60448201526064016102b8565b6002546040516323b872dd60e01b81526001600160a01b03909116906323b872dd9061094890339030908a906004016115c0565b6020604051808303816000875af1158015610967573d6000803e3d6000fd5b505050506040513d601f19601f8201168201806040525081019061098b919061159e565b506001600160a01b03871660009081526001602081815260408084208a8552909152909120015415610a52576002546001600160a01b0388811660009081526001602081815260408084208c8552909152918290208054910154915163a9059cbb60e01b81529083166004820152602481019190915291169063a9059cbb906044016020604051808303816000875af1158015610a2c573d6000803e3d6000fd5b505050506040513d601f19601f82011682018060405250810190610a50919061159e565b505b6040518060800160405280336001600160a01b0316815260200186815260200187815260200185858080601f01602080910402602001604051908101604052809392919081815260200183838082843760009201829052509390945250506001600160a01b038a811682526001602081815260408085208d8652825293849020865181546001600160a01b0319169416939093178355858101519183019190915591840151600282015560608401518051919350610b17926003850192910190611314565b50506040518681528791506001600160a01b0389169033907ffe2979a4f709791da9ec5db45f7f9a1ca8436e398ac7cf29e2fa103a91e414589060200160405180910390a450505050505050565b6001600160a01b0382166000908152602081815260408083208484529091529020600281015460ff168015610ba3575080546001600160a01b031633145b610bef5760405162461bcd60e51b815260206004820152601c60248201527f4e6f7420617574686f72697a656420746f20616363657074206269640000000060448201526064016102b8565b60008390506000816001600160a01b03166302d05d3f6040518163ffffffff1660e01b8152600401602060405180830381865afa158015610c34573d6000803e3d6000fd5b505050506040513d601f19601f82011682018060405250810190610c58919061157a565b90506001600160a01b038116610ca85760405162461bcd60e51b815260206004820152601560248201527410591b5a5b881859191c995cdcc81b9bdd081cd95d605a1b60448201526064016102b8565b6001600160a01b03808616600090815260016020818152604080842089855282528084208151608081018352815490961686529283015491850191909152600282015490840152600381018054929392606084019190610d07906115e4565b80601f0160208091040260200160405190810160405280929190818152602001828054610d33906115e4565b8015610d805780601f10610d5557610100808354040283529160200191610d80565b820191906000526020600020905b815481529060010190602001808311610d6357829003601f168201915b50505050508152505090506000816020015111610ddf5760405162461bcd60e51b815260206004820152601e60248201527f4e6f20616374697665206269647320666f722074686973207469636b6574000060448201526064016102b8565b6000606482602001516005610df49190611635565b610dfe9190611654565b90506000818360200151610e129190611676565b600254875460405163a9059cbb60e01b81526001600160a01b03918216600482015260248101849052929350169063a9059cbb906044016020604051808303816000875af1158015610e68573d6000803e3d6000fd5b505050506040513d601f19601f82011682018060405250810190610e8c919061159e565b5060025460405163a9059cbb60e01b81526001600160a01b038681166004830152602482018590529091169063a9059cbb906044016020604051808303816000875af1158015610ee0573d6000803e3d6000fd5b505050506040513d601f19601f82011682018060405250810190610f04919061159e565b506060830151604051637b615c4b60e01b81526001600160a01b038a1691637b615c4b91610f36918b9160040161168d565b600060405180830381600087803b158015610f5057600080fd5b505af1158015610f64573d6000803e3d6000fd5b505084516040516323b872dd60e01b81526001600160a01b038c1693506323b872dd9250610f989130918c906004016115c0565b600060405180830381600087803b158015610fb257600080fd5b505af1158015610fc6573d6000803e3d6000fd5b5050505086886001600160a01b031684600001516001600160a01b03167fc94b51939529c736abed465cef9c3c3cacd78ac7ee0855a967ef32f07935abec866020015160405161101891815260200190565b60405180910390a46001600160a01b0388166000818152602081815260408083208b8452825280832080546001600160a01b0319908116825560018083018690556002928301805460ff191690559585528584528285208d8652909352908320805490921682559281018290559182018190556110986003830182611398565b50505050505050505050565b6001600160a01b03808316600090815260208181526040808320858452825291829020825160608101845281549094168085526001820154928501929092526002015460ff1615159183019190915233146111325760405162461bcd60e51b815260206004820152600e60248201526d2737ba103a34329039b2b63632b960911b60448201526064016102b8565b6040516323b872dd60e01b81526001600160a01b038416906323b872dd90611162903090339087906004016115c0565b600060405180830381600087803b15801561117c57600080fd5b505af1158015611190573d6000803e3d6000fd5b505050506001600160a01b038316600081815260208181526040808320868452825280832080546001600160a01b031916815560018082018590556002909101805460ff1916905593835283825280832086845290915290200154156112d9576002546001600160a01b038481166000908152600160208181526040808420888552909152918290208054910154915163a9059cbb60e01b81529083166004820152602481019190915291169063a9059cbb906044016020604051808303816000875af1158015611265573d6000803e3d6000fd5b505050506040513d601f19601f82011682018060405250810190611289919061159e565b506001600160a01b0383166000908152600160208181526040808420868552909152822080546001600160a01b031916815590810182905560028101829055906112d66003830182611398565b50505b60405182906001600160a01b038516907f9c74d776e5765f64303c82b9dceb594cdf4d4e054e6530a839715a276532e0ab90600090a3505050565b828054611320906115e4565b90600052602060002090601f0160209004810192826113425760008555611388565b82601f1061135b57805160ff1916838001178555611388565b82800160010185558215611388579182015b8281111561138857825182559160200191906001019061136d565b506113949291506113d5565b5090565b5080546113a4906115e4565b6000825580601f106113b4575050565b601f0160209004906000526020600020908101906113d291906113d5565b50565b5b8082111561139457600081556001016113d6565b6001600160a01b03811681146113d257600080fd5b6000806040838503121561141257600080fd5b823561141d816113ea565b946020939093013593505050565b60008060006060848603121561144057600080fd5b833561144b816113ea565b95602085013595506040909401359392505050565b6000815180845260005b818110156114865760208185018101518683018201520161146a565b81811115611498576000602083870101525b50601f01601f19169290920160200192915050565b60018060a01b03851681528360208201528260408201526080606082015260006114da6080830184611460565b9695505050505050565b6000806000806000608086880312156114fc57600080fd5b8535611507816113ea565b94506020860135935060408601359250606086013567ffffffffffffffff8082111561153257600080fd5b818801915088601f83011261154657600080fd5b81358181111561155557600080fd5b89602082850101111561156757600080fd5b9699959850939650602001949392505050565b60006020828403121561158c57600080fd5b8151611597816113ea565b9392505050565b6000602082840312156115b057600080fd5b8151801515811461159757600080fd5b6001600160a01b039384168152919092166020820152604081019190915260600190565b600181811c908216806115f857607f821691505b6020821081141561161957634e487b7160e01b600052602260045260246000fd5b50919050565b634e487b7160e01b600052601160045260246000fd5b600081600019048311821515161561164f5761164f61161f565b500290565b60008261167157634e487b7160e01b600052601260045260246000fd5b500490565b6000828210156116885761168861161f565b500390565b8281526040602082015260006116a66040830184611460565b94935050505056fea264697066735822122074f4480f84c7de4a03013245717c752e2b118a3aeffed6fa044942c66b4f152864736f6c634300080a0033",
    "linkReferences": {}
  },
  "methodIdentifiers": {
    "acceptBid(address,uint256)": "955a5a76",
    "delistTicket(address,uint256)": "f489b89a",
    "getHighestBid(address,uint256)": "8226508d",
    "getHighestBidder(address,uint256)": "a670a9b4",
    "highestBids(address,uint256)": "6b753f36",
    "listTicket(address,uint256,uint256)": "1d66b15c",
    "listings(address,uint256)": "0007df30",
    "submitBid(address,uint256,uint256,string)": "793bba6c"
  },
  "id": 17
}